{
  "contractName": "AtomicSwap",
  "abi": [
    {
      "anonymous": false,
      "inputs": [
        {
          "indexed": true,
          "internalType": "bytes32",
          "name": "swapID",
          "type": "bytes32"
        },
        {
          "indexed": true,
          "internalType": "address",
          "name": "participant",
          "type": "address"
        },
        {
          "indexed": false,
          "internalType": "uint256",
          "name": "value",
          "type": "uint256"
        },
        {
          "indexed": false,
          "internalType": "uint256",
          "name": "refundTimestamp",
          "type": "uint256"
        },
        {
          "indexed": false,
          "internalType": "bytes32",
          "name": "secretHash",
          "type": "bytes32"
        }
      ],
      "name": "Initiate",
      "type": "event"
    },
    {
      "anonymous": false,
      "inputs": [
        {
          "indexed": true,
          "internalType": "bytes32",
          "name": "swapID",
          "type": "bytes32"
        },
        {
          "indexed": false,
          "internalType": "bytes32",
          "name": "secret",
          "type": "bytes32"
        }
      ],
      "name": "Redeem",
      "type": "event"
    },
    {
      "anonymous": false,
      "inputs": [
        {
          "indexed": true,
          "internalType": "bytes32",
          "name": "swapID",
          "type": "bytes32"
        }
      ],
      "name": "Refund",
      "type": "event"
    },
    {
      "inputs": [
        {
          "internalType": "bytes32",
          "name": "",
          "type": "bytes32"
        }
      ],
      "name": "swaps",
      "outputs": [
        {
          "internalType": "address payable",
          "name": "initiator",
          "type": "address"
        },
        {
          "internalType": "address payable",
          "name": "participant",
          "type": "address"
        },
        {
          "internalType": "uint256",
          "name": "value",
          "type": "uint256"
        },
        {
          "internalType": "uint256",
          "name": "refundTimestamp",
          "type": "uint256"
        },
        {
          "internalType": "bytes32",
          "name": "secretHash",
          "type": "bytes32"
        },
        {
          "internalType": "bytes32",
          "name": "secret",
          "type": "bytes32"
        },
        {
          "internalType": "bool",
          "name": "initiated",
          "type": "bool"
        },
        {
          "internalType": "bool",
          "name": "redeemed",
          "type": "bool"
        },
        {
          "internalType": "bool",
          "name": "refunded",
          "type": "bool"
        }
      ],
      "stateMutability": "view",
      "type": "function"
    },
    {
      "inputs": [
        {
          "internalType": "bytes32",
          "name": "_swapID",
          "type": "bytes32"
        },
        {
          "internalType": "address payable",
          "name": "_participant",
          "type": "address"
        },
        {
          "internalType": "uint256",
          "name": "_refundTimestamp",
          "type": "uint256"
        },
        {
          "internalType": "bytes32",
          "name": "_secretHash",
          "type": "bytes32"
        }
      ],
      "name": "initiate",
      "outputs": [],
      "stateMutability": "payable",
      "type": "function"
    },
    {
      "inputs": [
        {
          "internalType": "bytes32",
          "name": "_swapID",
          "type": "bytes32"
        },
        {
          "internalType": "bytes32",
          "name": "_secret",
          "type": "bytes32"
        }
      ],
      "name": "redeem",
      "outputs": [],
      "stateMutability": "nonpayable",
      "type": "function"
    },
    {
      "inputs": [
        {
          "internalType": "bytes32",
          "name": "_swapID",
          "type": "bytes32"
        }
      ],
      "name": "refund",
      "outputs": [],
      "stateMutability": "nonpayable",
      "type": "function"
    }
  ],
  "bytecode": "0x608060405234801561000f575f80fd5b506108cd8061001d5f395ff3fe60806040526004361061003e575f3560e01c80637249fbb614610042578063b31597ad14610063578063e182b21b14610082578063eb84e7f214610095575b5f80fd5b34801561004d575f80fd5b5061006161005c3660046107d8565b610166565b005b34801561006e575f80fd5b5061006161007d3660046107ef565b610363565b61006161009036600461080f565b6105d5565b3480156100a0575f80fd5b5061010d6100af3660046107d8565b5f6020819052908152604090208054600182015460028301546003840154600485015460058601546006909601546001600160a01b0395861696959094169492939192909160ff808216916101008104821691620100009091041689565b604080516001600160a01b039a8b1681529990981660208a0152968801959095526060870193909352608086019190915260a0850152151560c0840152151560e083015215156101008201526101200160405180910390f35b5f8181526020819052604090205481906001600160a01b031633146101e05760405162461bcd60e51b815260206004820152602560248201527f4f6e6c7920696e69746961746f722063616e2063616c6c20746869732066756e60448201526431ba34b7b760d91b60648201526084015b60405180910390fd5b5f82815260208190526040902060038101544210156102415760405162461bcd60e51b815260206004820152601860248201527f526566756e64206e6f742079657420617661696c61626c65000000000000000060448201526064016101d7565b6006810154610100900460ff16156102935760405162461bcd60e51b815260206004820152601560248201527414ddd85c08185b1c9958591e481c995919595b5959605a1b60448201526064016101d7565b600681015462010000900460ff16156102e65760405162461bcd60e51b815260206004820152601560248201527414ddd85c08185b1c9958591e481c99599d5b991959605a1b60448201526064016101d7565b60068101805462ff0000191662010000179055805460028201546040516001600160a01b039092169181156108fc0291905f818181858888f19350505050158015610333573d5f803e3d5ffd5b5060405183907f3fbd469ec3a5ce074f975f76ce27e727ba21c99176917b97ae2e713695582a12905f90a2505050565b5f8281526020819052604090206001015482906001600160a01b031633146103dd5760405162461bcd60e51b815260206004820152602760248201527f4f6e6c79207061727469636970616e742063616e2063616c6c207468697320666044820152663ab731ba34b7b760c91b60648201526084016101d7565b5f8381526020819052604090206006810154610100900460ff161561043c5760405162461bcd60e51b815260206004820152601560248201527414ddd85c08185b1c9958591e481c995919595b5959605a1b60448201526064016101d7565b600681015462010000900460ff161561048f5760405162461bcd60e51b815260206004820152601560248201527414ddd85c08185b1c9958591e481c99599d5b991959605a1b60448201526064016101d7565b80600401546002846040516020016104a991815260200190565b60408051601f19818403018152908290526104c391610854565b602060405180830381855afa1580156104de573d5f803e3d5ffd5b5050506040513d601f19601f820116820180604052508101906105019190610880565b1461053f5760405162461bcd60e51b815260206004820152600e60248201526d125b9d985b1a59081cd958dc995d60921b60448201526064016101d7565b6005810183905560068101805461ff001916610100179055600181015460028201546040516001600160a01b039092169181156108fc0291905f818181858888f19350505050158015610594573d5f803e3d5ffd5b50837ffe5d8239fb4c0cba42eacd5004db0b95a5a23da7b699c7eedf948a398bbe2e85846040516105c791815260200190565b60405180910390a250505050565b5f8481526020819052604090206006015460ff161561062f5760405162461bcd60e51b815260206004820152601660248201527514ddd85c08185b1c9958591e481a5b9a5d1a585d195960521b60448201526064016101d7565b604051806101200160405280336001600160a01b03168152602001846001600160a01b031681526020013481526020018381526020018281526020015f801b81526020016001151581526020015f151581526020015f15158152505f808681526020019081526020015f205f820151815f015f6101000a8154816001600160a01b0302191690836001600160a01b031602179055506020820151816001015f6101000a8154816001600160a01b0302191690836001600160a01b0316021790555060408201518160020155606082015181600301556080820151816004015560a0820151816005015560c0820151816006015f6101000a81548160ff02191690831515021790555060e08201518160060160016101000a81548160ff0219169083151502179055506101008201518160060160026101000a81548160ff021916908315150217905550905050826001600160a01b0316847f1b0975d3563a21962c3d8872a156db6d4a9eec93f5d8ceb8cd4b93d71d0ef13e3485856040516107ca939291909283526020830191909152604082015260600190565b60405180910390a350505050565b5f602082840312156107e8575f80fd5b5035919050565b5f8060408385031215610800575f80fd5b50508035926020909101359150565b5f805f8060808587031215610822575f80fd5b8435935060208501356001600160a01b038116811461083f575f80fd5b93969395505050506040820135916060013590565b5f82515f5b818110156108735760208186018101518583015201610859565b505f920191825250919050565b5f60208284031215610890575f80fd5b505191905056fea26469706673582212209bdad0e7a2420fbb48dba0b119846fcbe61d7373a150ed56bd49a3bee5c7821d64736f6c63430008140033",
  "immutableReferences": {},
  "source": "// SPDX-License-Identifier: MIT\npragma solidity ^0.8.0;\n\ncontract AtomicSwap {\n    struct Swap {\n        address payable initiator;\n        address payable participant;\n        uint256 value;\n        uint256 refundTimestamp;\n        bytes32 secretHash;\n        bytes32 secret;\n        bool initiated;\n        bool redeemed;\n        bool refunded;\n    }\n\n    mapping(bytes32 => Swap) public swaps;\n\n    event Initiate(bytes32 indexed swapID, address indexed participant, uint256 value, uint256 refundTimestamp, bytes32 secretHash);\n    event Redeem(bytes32 indexed swapID, bytes32 secret);\n    event Refund(bytes32 indexed swapID);\n\n    modifier onlyInitiator(bytes32 _swapID) {\n        require(msg.sender == swaps[_swapID].initiator, \"Only initiator can call this function\");\n        _;\n    }\n\n    modifier onlyParticipant(bytes32 _swapID) {\n        require(msg.sender == swaps[_swapID].participant, \"Only participant can call this function\");\n        _;\n    }\n\n    function initiate(bytes32 _swapID, address payable _participant, uint256 _refundTimestamp, bytes32 _secretHash) external payable {\n        require(swaps[_swapID].initiated == false, \"Swap already initiated\");\n        swaps[_swapID] = Swap({\n            initiator: payable(msg.sender),\n            participant: _participant,\n            value: msg.value,\n            refundTimestamp: _refundTimestamp,\n            secretHash: _secretHash,\n            secret: 0x0,\n            initiated: true,\n            redeemed: false,\n            refunded: false\n        });\n        emit Initiate(_swapID, _participant, msg.value, _refundTimestamp, _secretHash);\n    }\n\n    function redeem(bytes32 _swapID, bytes32 _secret) external onlyParticipant(_swapID) {\n        Swap storage swap = swaps[_swapID];\n        require(swap.redeemed == false, \"Swap already redeemed\");\n        require(swap.refunded == false, \"Swap already refunded\");\n        require(sha256(abi.encodePacked(_secret)) == swap.secretHash, \"Invalid secret\");\n        swap.secret = _secret;\n        swap.redeemed = true;\n        swap.participant.transfer(swap.value);\n        emit Redeem(_swapID, _secret);\n    }\n\n    function refund(bytes32 _swapID) external onlyInitiator(_swapID) {\n        Swap storage swap = swaps[_swapID];\n        require(block.timestamp >= swap.refundTimestamp, \"Refund not yet available\");\n        require(swap.redeemed == false, \"Swap already redeemed\");\n        require(swap.refunded == false, \"Swap already refunded\");\n        swap.refunded = true;\n        swap.initiator.transfer(swap.value);\n        emit Refund(_swapID);\n    }\n}\n",
  "sourcePath": "C:\\Users\\daniel\\Downloads\\satoshi-chain-updated-v2\\contracts\\AtomicSwap.sol",
  "compiler": {
    "name": "solc",
    "version": "0.8.20+commit.a1b79de6.Emscripten.clang"
  },
  "schemaVersion": "3.4.4",
  "updatedAt": "2024-07-11T02:24:32.380Z",
  "devdoc": {
    "kind": "dev",
    "methods": {},
    "version": 1
  },
  "userdoc": {
    "kind": "user",
    "methods": {},
    "version": 1
  }
}