{
  "contractName": "CrossChainBridge",
  "abi": [
    {
      "inputs": [
        {
          "internalType": "address",
          "name": "_tokenWBTC",
          "type": "address"
        },
        {
          "internalType": "address",
          "name": "_tokenUSDC",
          "type": "address"
        },
        {
          "internalType": "address",
          "name": "_tokenUSDT",
          "type": "address"
        }
      ],
      "stateMutability": "nonpayable",
      "type": "constructor"
    },
    {
      "anonymous": false,
      "inputs": [
        {
          "indexed": false,
          "internalType": "address",
          "name": "from",
          "type": "address"
        },
        {
          "indexed": false,
          "internalType": "address",
          "name": "to",
          "type": "address"
        },
        {
          "indexed": false,
          "internalType": "uint256",
          "name": "amount",
          "type": "uint256"
        },
        {
          "indexed": false,
          "internalType": "uint256",
          "name": "date",
          "type": "uint256"
        },
        {
          "indexed": false,
          "internalType": "bytes32",
          "name": "nonce",
          "type": "bytes32"
        },
        {
          "indexed": false,
          "internalType": "string",
          "name": "destinationChain",
          "type": "string"
        },
        {
          "indexed": false,
          "internalType": "string",
          "name": "tokenSymbol",
          "type": "string"
        }
      ],
      "name": "Transfer",
      "type": "event"
    },
    {
      "inputs": [],
      "name": "admin",
      "outputs": [
        {
          "internalType": "address",
          "name": "",
          "type": "address"
        }
      ],
      "stateMutability": "view",
      "type": "function"
    },
    {
      "inputs": [
        {
          "internalType": "bytes32",
          "name": "",
          "type": "bytes32"
        }
      ],
      "name": "processedNonces",
      "outputs": [
        {
          "internalType": "bool",
          "name": "",
          "type": "bool"
        }
      ],
      "stateMutability": "view",
      "type": "function"
    },
    {
      "inputs": [],
      "name": "tokenUSDC",
      "outputs": [
        {
          "internalType": "address",
          "name": "",
          "type": "address"
        }
      ],
      "stateMutability": "view",
      "type": "function"
    },
    {
      "inputs": [],
      "name": "tokenUSDT",
      "outputs": [
        {
          "internalType": "address",
          "name": "",
          "type": "address"
        }
      ],
      "stateMutability": "view",
      "type": "function"
    },
    {
      "inputs": [],
      "name": "tokenWBTC",
      "outputs": [
        {
          "internalType": "address",
          "name": "",
          "type": "address"
        }
      ],
      "stateMutability": "view",
      "type": "function"
    },
    {
      "inputs": [
        {
          "internalType": "address",
          "name": "to",
          "type": "address"
        },
        {
          "internalType": "uint256",
          "name": "amount",
          "type": "uint256"
        },
        {
          "internalType": "bytes32",
          "name": "nonce",
          "type": "bytes32"
        },
        {
          "internalType": "string",
          "name": "destinationChain",
          "type": "string"
        },
        {
          "internalType": "string",
          "name": "tokenSymbol",
          "type": "string"
        }
      ],
      "name": "bridgeTokens",
      "outputs": [],
      "stateMutability": "nonpayable",
      "type": "function"
    },
    {
      "inputs": [
        {
          "internalType": "address",
          "name": "to",
          "type": "address"
        },
        {
          "internalType": "uint256",
          "name": "amount",
          "type": "uint256"
        },
        {
          "internalType": "bytes32",
          "name": "nonce",
          "type": "bytes32"
        },
        {
          "internalType": "string",
          "name": "tokenSymbol",
          "type": "string"
        }
      ],
      "name": "releaseTokens",
      "outputs": [],
      "stateMutability": "nonpayable",
      "type": "function"
    }
  ],
  "bytecode": "0x608060405234801561000f575f80fd5b50604051610aba380380610aba83398101604081905261002e91610095565b5f80546001600160a01b03199081163317909155600180546001600160a01b039586169083161790556002805493851693821693909317909255600380549190931691161790556100d5565b80516001600160a01b0381168114610090575f80fd5b919050565b5f805f606084860312156100a7575f80fd5b6100b08461007a565b92506100be6020850161007a565b91506100cc6040850161007a565b90509250925092565b6109d8806100e25f395ff3fe608060405234801561000f575f80fd5b506004361061007a575f3560e01c806399c5c8aa1161005857806399c5c8aa146100f5578063add4489c14610108578063c86d40401461011b578063f851a4401461012e575f80fd5b806325da43671461007e578063404a4edb146100ae57806371e807c7146100e0575b5f80fd5b600154610091906001600160a01b031681565b6040516001600160a01b0390911681526020015b60405180910390f35b6100d06100bc36600461070a565b60046020525f908152604090205460ff1681565b60405190151581526020016100a5565b6100f36100ee3660046107d9565b610140565b005b600354610091906001600160a01b031681565b6100f361011636600461085b565b610441565b600254610091906001600160a01b031681565b5f54610091906001600160a01b031681565b5f8381526004602052604090205460ff16156101a35760405162461bcd60e51b815260206004820152601a60248201527f7472616e7366657220616c72656164792070726f63657373656400000000000060448201526064015b60405180910390fd5b5f83815260046020908152604091829020805460ff1916600117905590516101d69101635742544360e01b815260040190565b60405160208183030381529060405280519060200120816040516020016101fd91906108da565b6040516020818303038152906040528051906020012003610297576001546040516323b872dd60e01b8152336004820152306024820152604481018690526001600160a01b03909116906323b872dd906064015b6020604051808303815f875af115801561026d573d5f803e3d5ffd5b505050506040513d601f19601f8201168201806040525081019061029191906108f5565b506103f7565b604051635553444360e01b602082015260240160405160208183030381529060405280519060200120816040516020016102d191906108da565b6040516020818303038152906040528051906020012003610329576002546040516323b872dd60e01b8152336004820152306024820152604481018690526001600160a01b03909116906323b872dd90606401610251565b604051631554d11560e21b6020820152602401604051602081830303815290604052805190602001208160405160200161036391906108da565b60405160208183030381529060405280519060200120036103bb576003546040516323b872dd60e01b8152336004820152306024820152604481018690526001600160a01b03909116906323b872dd90606401610251565b60405162461bcd60e51b81526020600482015260116024820152703ab739bab83837b93a32b2103a37b5b2b760791b604482015260640161019a565b7f5c458a2796e6de717a9e10f0b3b52bf42b9c1724b912268a5d7bbbf8ecd2c54f338686428787876040516104329796959493929190610946565b60405180910390a15050505050565b5f546001600160a01b0316331461049a5760405162461bcd60e51b815260206004820152601d60248201527f6f6e6c792061646d696e2063616e2072656c6561736520746f6b656e73000000604482015260640161019a565b5f8281526004602052604090205460ff16156104f85760405162461bcd60e51b815260206004820152601a60248201527f7472616e7366657220616c72656164792070726f636573736564000000000000604482015260640161019a565b5f82815260046020908152604091829020805460ff19166001179055905161052b9101635742544360e01b815260040190565b604051602081830303815290604052805190602001208160405160200161055291906108da565b60405160208183030381529060405280519060200120036105e85760015460405163a9059cbb60e01b81526001600160a01b038681166004830152602482018690529091169063a9059cbb906044015b6020604051808303815f875af11580156105be573d5f803e3d5ffd5b505050506040513d601f19601f820116820180604052508101906105e291906108f5565b50610704565b604051635553444360e01b6020820152602401604051602081830303815290604052805190602001208160405160200161062291906108da565b60405160208183030381529060405280519060200120036106765760025460405163a9059cbb60e01b81526001600160a01b038681166004830152602482018690529091169063a9059cbb906044016105a2565b604051631554d11560e21b602082015260240160405160208183030381529060405280519060200120816040516020016106b091906108da565b60405160208183030381529060405280519060200120036103bb5760035460405163a9059cbb60e01b81526001600160a01b038681166004830152602482018690529091169063a9059cbb906044016105a2565b50505050565b5f6020828403121561071a575f80fd5b5035919050565b80356001600160a01b0381168114610737575f80fd5b919050565b634e487b7160e01b5f52604160045260245ffd5b5f82601f83011261075f575f80fd5b813567ffffffffffffffff8082111561077a5761077a61073c565b604051601f8301601f19908116603f011681019082821181831017156107a2576107a261073c565b816040528381528660208588010111156107ba575f80fd5b836020870160208301375f602085830101528094505050505092915050565b5f805f805f60a086880312156107ed575f80fd5b6107f686610721565b94506020860135935060408601359250606086013567ffffffffffffffff80821115610820575f80fd5b61082c89838a01610750565b93506080880135915080821115610841575f80fd5b5061084e88828901610750565b9150509295509295909350565b5f805f806080858703121561086e575f80fd5b61087785610721565b93506020850135925060408501359150606085013567ffffffffffffffff8111156108a0575f80fd5b6108ac87828801610750565b91505092959194509250565b5f5b838110156108d25781810151838201526020016108ba565b50505f910152565b5f82516108eb8184602087016108b8565b9190910192915050565b5f60208284031215610905575f80fd5b81518015158114610914575f80fd5b9392505050565b5f81518084526109328160208601602086016108b8565b601f01601f19169290920160200192915050565b5f60018060a01b03808a16835280891660208401525086604083015285606083015284608083015260e060a083015261098260e083018561091b565b82810360c0840152610994818561091b565b9a995050505050505050505056fea264697066735822122033cac77432964f39420c3f4ff687f2dee8bca72782960887c5f072f20e989dd264736f6c63430008140033",
  "immutableReferences": {},
  "source": "// SPDX-License-Identifier: MIT\npragma solidity ^0.8.0;\n\nimport \"@openzeppelin/contracts/token/ERC20/IERC20.sol\";\n\ncontract CrossChainBridge {\n    address public admin;\n    address public tokenWBTC;\n    address public tokenUSDC;\n    address public tokenUSDT;\n    mapping(bytes32 => bool) public processedNonces;\n\n    event Transfer(\n        address from,\n        address to,\n        uint amount,\n        uint date,\n        bytes32 nonce,\n        string destinationChain,\n        string tokenSymbol\n    );\n\n    constructor(address _tokenWBTC, address _tokenUSDC, address _tokenUSDT) {\n        admin = msg.sender;\n        tokenWBTC = _tokenWBTC;\n        tokenUSDC = _tokenUSDC;\n        tokenUSDT = _tokenUSDT;\n    }\n\n    function bridgeTokens(address to, uint amount, bytes32 nonce, string memory destinationChain, string memory tokenSymbol) external {\n        require(processedNonces[nonce] == false, \"transfer already processed\");\n        processedNonces[nonce] = true;\n\n        if (keccak256(abi.encodePacked(tokenSymbol)) == keccak256(abi.encodePacked(\"WBTC\"))) {\n            IERC20(tokenWBTC).transferFrom(msg.sender, address(this), amount);\n        } else if (keccak256(abi.encodePacked(tokenSymbol)) == keccak256(abi.encodePacked(\"USDC\"))) {\n            IERC20(tokenUSDC).transferFrom(msg.sender, address(this), amount);\n        } else if (keccak256(abi.encodePacked(tokenSymbol)) == keccak256(abi.encodePacked(\"USDT\"))) {\n            IERC20(tokenUSDT).transferFrom(msg.sender, address(this), amount);\n        } else {\n            revert(\"unsupported token\");\n        }\n\n        emit Transfer(msg.sender, to, amount, block.timestamp, nonce, destinationChain, tokenSymbol);\n    }\n\n    function releaseTokens(address to, uint amount, bytes32 nonce, string memory tokenSymbol) external {\n        require(msg.sender == admin, \"only admin can release tokens\");\n        require(processedNonces[nonce] == false, \"transfer already processed\");\n        processedNonces[nonce] = true;\n\n        if (keccak256(abi.encodePacked(tokenSymbol)) == keccak256(abi.encodePacked(\"WBTC\"))) {\n            IERC20(tokenWBTC).transfer(to, amount);\n        } else if (keccak256(abi.encodePacked(tokenSymbol)) == keccak256(abi.encodePacked(\"USDC\"))) {\n            IERC20(tokenUSDC).transfer(to, amount);\n        } else if (keccak256(abi.encodePacked(tokenSymbol)) == keccak256(abi.encodePacked(\"USDT\"))) {\n            IERC20(tokenUSDT).transfer(to, amount);\n        } else {\n            revert(\"unsupported token\");\n        }\n    }\n}\n",
  "sourcePath": "C:\\Users\\daniel\\Downloads\\satoshi-chain-updated-v2\\contracts\\CrossChainBridge.sol",
  "compiler": {
    "name": "solc",
    "version": "0.8.20+commit.a1b79de6.Emscripten.clang"
  },
  "schemaVersion": "3.4.4",
  "updatedAt": "2024-07-11T02:24:32.388Z",
  "devdoc": {
    "kind": "dev",
    "methods": {},
    "version": 1
  },
  "userdoc": {
    "kind": "user",
    "methods": {},
    "version": 1
  }
}