{
  "contractName": "Governance",
  "abi": [
    {
      "inputs": [
        {
          "internalType": "address",
          "name": "_satoshiToken",
          "type": "address"
        },
        {
          "internalType": "uint256",
          "name": "_votingDuration",
          "type": "uint256"
        },
        {
          "internalType": "uint256",
          "name": "_rewardAmount",
          "type": "uint256"
        }
      ],
      "stateMutability": "nonpayable",
      "type": "constructor"
    },
    {
      "inputs": [],
      "name": "admin",
      "outputs": [
        {
          "internalType": "address",
          "name": "",
          "type": "address"
        }
      ],
      "stateMutability": "view",
      "type": "function"
    },
    {
      "inputs": [],
      "name": "proposalCount",
      "outputs": [
        {
          "internalType": "uint256",
          "name": "",
          "type": "uint256"
        }
      ],
      "stateMutability": "view",
      "type": "function"
    },
    {
      "inputs": [
        {
          "internalType": "uint256",
          "name": "",
          "type": "uint256"
        }
      ],
      "name": "proposals",
      "outputs": [
        {
          "internalType": "uint256",
          "name": "id",
          "type": "uint256"
        },
        {
          "internalType": "string",
          "name": "description",
          "type": "string"
        },
        {
          "internalType": "uint256",
          "name": "voteCount",
          "type": "uint256"
        },
        {
          "internalType": "uint256",
          "name": "endTime",
          "type": "uint256"
        },
        {
          "internalType": "bool",
          "name": "executed",
          "type": "bool"
        }
      ],
      "stateMutability": "view",
      "type": "function"
    },
    {
      "inputs": [],
      "name": "rewardAmount",
      "outputs": [
        {
          "internalType": "uint256",
          "name": "",
          "type": "uint256"
        }
      ],
      "stateMutability": "view",
      "type": "function"
    },
    {
      "inputs": [],
      "name": "satoshiToken",
      "outputs": [
        {
          "internalType": "contract ISatoshiToken",
          "name": "",
          "type": "address"
        }
      ],
      "stateMutability": "view",
      "type": "function"
    },
    {
      "inputs": [],
      "name": "votingDuration",
      "outputs": [
        {
          "internalType": "uint256",
          "name": "",
          "type": "uint256"
        }
      ],
      "stateMutability": "view",
      "type": "function"
    },
    {
      "inputs": [
        {
          "internalType": "string",
          "name": "_description",
          "type": "string"
        }
      ],
      "name": "createProposal",
      "outputs": [],
      "stateMutability": "nonpayable",
      "type": "function"
    },
    {
      "inputs": [
        {
          "internalType": "uint256",
          "name": "_proposalId",
          "type": "uint256"
        }
      ],
      "name": "vote",
      "outputs": [],
      "stateMutability": "nonpayable",
      "type": "function"
    },
    {
      "inputs": [
        {
          "internalType": "uint256",
          "name": "_proposalId",
          "type": "uint256"
        }
      ],
      "name": "executeProposal",
      "outputs": [],
      "stateMutability": "nonpayable",
      "type": "function"
    }
  ],
  "bytecode": "0x608060405234801561000f575f80fd5b5060405161095d38038061095d83398101604081905261002e91610068565b60028054336001600160a01b031991821617909155600480549091166001600160a01b0394909416939093179092556003556005556100a7565b5f805f6060848603121561007a575f80fd5b83516001600160a01b0381168114610090575f80fd5b602085015160409095015190969495509392505050565b6108a9806100b45f395ff3fe608060405234801561000f575f80fd5b5060043610610090575f3560e01c806349c2a1a61161006357806349c2a1a614610100578063da35c66414610113578063e5e84a3b1461011b578063f7b2a7be14610146578063f851a4401461014f575f80fd5b80630121b93f14610094578063013cf08b146100a95780630d61b519146100d6578063132002fc146100e9575b5f80fd5b6100a76100a2366004610586565b610162565b005b6100bc6100b7366004610586565b610304565b6040516100cd95949392919061059d565b60405180910390f35b6100a76100e4366004610586565b6103bc565b6100f260035481565b6040519081526020016100cd565b6100a761010e36600461061b565b61053a565b6100f25f5481565b60045461012e906001600160a01b031681565b6040516001600160a01b0390911681526020016100cd565b6100f260055481565b60025461012e906001600160a01b031681565b5f818152600160205260409020600481015442106101bd5760405162461bcd60e51b8152602060048201526013602482015272159bdd1a5b99c81c195c9a5bd908195b991959606a1b60448201526064015b60405180910390fd5b335f90815260038201602052604090205460ff16156102175760405162461bcd60e51b8152602060048201526016602482015275165bdd481a185d9948185b1c9958591e481d9bdd195960521b60448201526064016101b4565b335f9081526003820160205260408120805460ff1916600117905560028201805491610242836106da565b90915550506004805460055460405163a9059cbb60e01b8152339381019390935260248301526001600160a01b03169063a9059cbb906044016020604051808303815f875af1158015610297573d5f803e3d5ffd5b505050506040513d601f19601f820116820180604052508101906102bb91906106f2565b6103005760405162461bcd60e51b815260206004820152601660248201527514995dd85c99081d1c985b9cd9995c8819985a5b195960521b60448201526064016101b4565b5050565b600160208190525f91825260409091208054918101805461032490610718565b80601f016020809104026020016040519081016040528092919081815260200182805461035090610718565b801561039b5780601f106103725761010080835404028352916020019161039b565b820191905f5260205f20905b81548152906001019060200180831161037e57829003601f168201915b50505050600283015460048401546005909401549293909290915060ff1685565b6002546001600160a01b031633146104205760405162461bcd60e51b815260206004820152602160248201527f4f6e6c792061646d696e2063616e2063616c6c20746869732066756e6374696f6044820152603760f91b60648201526084016101b4565b5f818152600160205260409020600581015460ff16156104825760405162461bcd60e51b815260206004820152601960248201527f50726f706f73616c20616c72656164792065786563757465640000000000000060448201526064016101b4565b5f8160020154116104d55760405162461bcd60e51b815260206004820152601960248201527f4e6f20766f74657320666f72207468652070726f706f73616c0000000000000060448201526064016101b4565b80600401544210156105295760405162461bcd60e51b815260206004820152601760248201527f566f74696e6720706572696f64206e6f7420656e64656400000000000000000060448201526064016101b4565b600501805460ff1916600117905550565b5f80549080610548836106da565b90915550505f805480825260016020819052604090922090815590810161056f838261079e565b5060035461057d904261085a565b60049091015550565b5f60208284031215610596575f80fd5b5035919050565b8581525f602060a08184015286518060a08501525f5b818110156105cf5788810183015185820160c0015282016105b3565b505f60c0828601015260c0601f19601f8301168501019250505084604083015283606083015282151560808301529695505050505050565b634e487b7160e01b5f52604160045260245ffd5b5f6020828403121561062b575f80fd5b813567ffffffffffffffff80821115610642575f80fd5b818401915084601f830112610655575f80fd5b81358181111561066757610667610607565b604051601f8201601f19908116603f0116810190838211818310171561068f5761068f610607565b816040528281528760208487010111156106a7575f80fd5b826020860160208301375f928101602001929092525095945050505050565b634e487b7160e01b5f52601160045260245ffd5b5f600182016106eb576106eb6106c6565b5060010190565b5f60208284031215610702575f80fd5b81518015158114610711575f80fd5b9392505050565b600181811c9082168061072c57607f821691505b60208210810361074a57634e487b7160e01b5f52602260045260245ffd5b50919050565b601f821115610799575f81815260208120601f850160051c810160208610156107765750805b601f850160051c820191505b8181101561079557828155600101610782565b5050505b505050565b815167ffffffffffffffff8111156107b8576107b8610607565b6107cc816107c68454610718565b84610750565b602080601f8311600181146107ff575f84156107e85750858301515b5f19600386901b1c1916600185901b178555610795565b5f85815260208120601f198616915b8281101561082d5788860151825594840194600190910190840161080e565b508582101561084a57878501515f19600388901b60f8161c191681555b5050505050600190811b01905550565b8082018082111561086d5761086d6106c6565b9291505056fea2646970667358221220d041d69e658ff7816ad46d8c3401b49e3ac1cf1691b9364d1c6eba172d55e3d764736f6c63430008140033",
  "immutableReferences": {},
  "source": "// SPDX-License-Identifier: MIT\npragma solidity ^0.8.0;\n\ninterface ISatoshiToken {\n    function balanceOf(address account) external view returns (uint);\n    function transfer(address recipient, uint amount) external returns (bool);\n}\n\ncontract Governance {\n    struct Proposal {\n        uint id;\n        string description;\n        uint voteCount;\n        mapping(address => bool) voted;\n        uint endTime;\n        bool executed;\n    }\n\n    uint public proposalCount;\n    mapping(uint => Proposal) public proposals;\n    address public admin;\n    uint public votingDuration;\n    ISatoshiToken public satoshiToken;\n    uint public rewardAmount;\n\n    modifier onlyAdmin() {\n        require(msg.sender == admin, \"Only admin can call this function\");\n        _;\n    }\n\n    constructor(address _satoshiToken, uint _votingDuration, uint _rewardAmount) {\n        admin = msg.sender;\n        satoshiToken = ISatoshiToken(_satoshiToken);\n        votingDuration = _votingDuration;\n        rewardAmount = _rewardAmount;\n    }\n\n    function createProposal(string memory _description) public {\n        proposalCount++;\n        Proposal storage newProposal = proposals[proposalCount];\n        newProposal.id = proposalCount;\n        newProposal.description = _description;\n        newProposal.endTime = block.timestamp + votingDuration;\n    }\n\n    function vote(uint _proposalId) public {\n        Proposal storage proposal = proposals[_proposalId];\n        require(block.timestamp < proposal.endTime, \"Voting period ended\");\n        require(!proposal.voted[msg.sender], \"You have already voted\");\n\n        proposal.voted[msg.sender] = true;\n        proposal.voteCount++;\n\n        // Recompensar o votante com tokens Satoshi\n        require(satoshiToken.transfer(msg.sender, rewardAmount), \"Reward transfer failed\");\n    }\n\n    function executeProposal(uint _proposalId) public onlyAdmin {\n        Proposal storage proposal = proposals[_proposalId];\n        require(!proposal.executed, \"Proposal already executed\");\n        require(proposal.voteCount > 0, \"No votes for the proposal\");\n        require(block.timestamp >= proposal.endTime, \"Voting period not ended\");\n\n        // Implementar a lgica da proposta aqui\n\n        proposal.executed = true;\n    }\n}\n",
  "sourcePath": "C:\\Users\\daniel\\Downloads\\satoshi-chain-updated-v2\\contracts\\Governance.sol",
  "compiler": {
    "name": "solc",
    "version": "0.8.20+commit.a1b79de6.Emscripten.clang"
  },
  "schemaVersion": "3.4.4",
  "updatedAt": "2024-07-11T02:24:32.398Z",
  "devdoc": {
    "kind": "dev",
    "methods": {},
    "version": 1
  },
  "userdoc": {
    "kind": "user",
    "methods": {},
    "version": 1
  }
}