{
  "contractName": "PegSystem",
  "abi": [
    {
      "inputs": [
        {
          "internalType": "address[]",
          "name": "_signers",
          "type": "address[]"
        },
        {
          "internalType": "uint256",
          "name": "_requiredSignatures",
          "type": "uint256"
        }
      ],
      "stateMutability": "nonpayable",
      "type": "constructor"
    },
    {
      "anonymous": false,
      "inputs": [
        {
          "indexed": true,
          "internalType": "address",
          "name": "user",
          "type": "address"
        },
        {
          "indexed": false,
          "internalType": "uint256",
          "name": "amount",
          "type": "uint256"
        },
        {
          "indexed": false,
          "internalType": "string",
          "name": "btcAddress",
          "type": "string"
        }
      ],
      "name": "Deposit",
      "type": "event"
    },
    {
      "anonymous": false,
      "inputs": [
        {
          "indexed": true,
          "internalType": "address",
          "name": "user",
          "type": "address"
        },
        {
          "indexed": false,
          "internalType": "uint256",
          "name": "amount",
          "type": "uint256"
        },
        {
          "indexed": false,
          "internalType": "string",
          "name": "btcAddress",
          "type": "string"
        }
      ],
      "name": "Withdrawal",
      "type": "event"
    },
    {
      "inputs": [],
      "name": "requiredSignatures",
      "outputs": [
        {
          "internalType": "uint256",
          "name": "",
          "type": "uint256"
        }
      ],
      "stateMutability": "view",
      "type": "function"
    },
    {
      "inputs": [
        {
          "internalType": "address",
          "name": "",
          "type": "address"
        }
      ],
      "name": "satBalances",
      "outputs": [
        {
          "internalType": "uint256",
          "name": "",
          "type": "uint256"
        }
      ],
      "stateMutability": "view",
      "type": "function"
    },
    {
      "inputs": [
        {
          "internalType": "uint256",
          "name": "",
          "type": "uint256"
        }
      ],
      "name": "signers",
      "outputs": [
        {
          "internalType": "address",
          "name": "",
          "type": "address"
        }
      ],
      "stateMutability": "view",
      "type": "function"
    },
    {
      "inputs": [
        {
          "internalType": "uint256",
          "name": "btcAmount",
          "type": "uint256"
        },
        {
          "internalType": "string",
          "name": "btcAddress",
          "type": "string"
        }
      ],
      "name": "deposit",
      "outputs": [],
      "stateMutability": "nonpayable",
      "type": "function"
    },
    {
      "inputs": [
        {
          "internalType": "uint256",
          "name": "satAmount",
          "type": "uint256"
        },
        {
          "internalType": "string",
          "name": "btcAddress",
          "type": "string"
        },
        {
          "internalType": "bytes[]",
          "name": "signatures",
          "type": "bytes[]"
        }
      ],
      "name": "withdraw",
      "outputs": [],
      "stateMutability": "nonpayable",
      "type": "function"
    }
  ],
  "bytecode": "0x608060405234801561000f575f80fd5b506040516107e13803806107e183398101604081905261002e916100f1565b815161004190600190602085019061004b565b50600255506101b8565b828054828255905f5260205f2090810192821561009e579160200282015b8281111561009e57825182546001600160a01b0319166001600160a01b03909116178255602090920191600190910190610069565b506100aa9291506100ae565b5090565b5b808211156100aa575f81556001016100af565b634e487b7160e01b5f52604160045260245ffd5b80516001600160a01b03811681146100ec575f80fd5b919050565b5f8060408385031215610102575f80fd5b82516001600160401b0380821115610118575f80fd5b818501915085601f83011261012b575f80fd5b815160208282111561013f5761013f6100c2565b8160051b604051601f19603f83011681018181108682111715610164576101646100c2565b604052928352818301935084810182019289841115610181575f80fd5b948201945b838610156101a657610197866100d6565b85529482019493820193610186565b97909101519698969750505050505050565b61061c806101c55f395ff3fe608060405234801561000f575f80fd5b5060043610610055575f3560e01c80632079fb9a146100595780633968074f146100895780638d068043146100b6578063901614c1146100bf578063f1215d25146100d4575b5f80fd5b61006c6100673660046102c8565b6100e7565b6040516001600160a01b0390911681526020015b60405180910390f35b6100a86100973660046102df565b5f6020819052908152604090205481565b604051908152602001610080565b6100a860025481565b6100d26100cd3660046103c4565b61010f565b005b6100d26100e23660046104c1565b610250565b600181815481106100f6575f80fd5b5f918252602090912001546001600160a01b0316905081565b335f908152602081905260409020548311156101695760405162461bcd60e51b8152602060048201526014602482015273496e73756666696369656e742062616c616e636560601b60448201526064015b60405180910390fd5b600254815110156101b45760405162461bcd60e51b81526020600482015260156024820152744e6f7420656e6f756768207369676e61747572657360581b6044820152606401610160565b5f5b81518110156101d157806101c981610519565b9150506101b6565b50335f90815260208190526040812080548592906101f0908490610531565b909155505f90506102056305f5e1008561054a565b9050336001600160a01b03167fecb269d89bfded20a4f5e6e51b509df1e3309a995946c9be8d6a8e2ddfa6b89c8285604051610242929190610569565b60405180910390a250505050565b5f61025f836305f5e1006105bc565b335f908152602081905260408120805492935083929091906102829084906105d3565b909155505060405133907f643e927b32d5bfd08eccd2fcbd97057ad413850f857a2359639114e8e8dd3d7b906102bb9084908690610569565b60405180910390a2505050565b5f602082840312156102d8575f80fd5b5035919050565b5f602082840312156102ef575f80fd5b81356001600160a01b0381168114610305575f80fd5b9392505050565b634e487b7160e01b5f52604160045260245ffd5b604051601f8201601f1916810167ffffffffffffffff811182821017156103495761034961030c565b604052919050565b5f67ffffffffffffffff83111561036a5761036a61030c565b61037d601f8401601f1916602001610320565b9050828152838383011115610390575f80fd5b828260208301375f602084830101529392505050565b5f82601f8301126103b5575f80fd5b61030583833560208501610351565b5f805f606084860312156103d6575f80fd5b8335925060208085013567ffffffffffffffff808211156103f5575f80fd5b610401888389016103a6565b9450604091508187013581811115610417575f80fd5b8701601f81018913610427575f80fd5b8035828111156104395761043961030c565b8060051b610448868201610320565b918252828101860191868101908c841115610461575f80fd5b87850192505b838310156104af5782358681111561047e575f8081fd5b8501603f81018e1361048f575f8081fd5b61049f8e8a8301358a8401610351565b8352509187019190870190610467565b80985050505050505050509250925092565b5f80604083850312156104d2575f80fd5b82359150602083013567ffffffffffffffff8111156104ef575f80fd5b6104fb858286016103a6565b9150509250929050565b634e487b7160e01b5f52601160045260245ffd5b5f6001820161052a5761052a610505565b5060010190565b8181038181111561054457610544610505565b92915050565b5f8261056457634e487b7160e01b5f52601260045260245ffd5b500490565b8281525f602060408184015283518060408501525f5b8181101561059b5785810183015185820160600152820161057f565b505f606082860101526060601f19601f830116850101925050509392505050565b808202811582820484141761054457610544610505565b808201808211156105445761054461050556fea26469706673582212207f99eda51f1b13484d91e04930dfafc93796c40f816d2151d6121a5ada7271be64736f6c63430008140033",
  "immutableReferences": {},
  "source": "// SPDX-License-Identifier: MIT\npragma solidity ^0.8.0;\n\ncontract PegSystem {\n    mapping(address => uint256) public satBalances; // Updated to satBalances\n    address[] public signers;\n    uint public requiredSignatures;\n\n    event Deposit(address indexed user, uint256 amount, string btcAddress);\n    event Withdrawal(address indexed user, uint256 amount, string btcAddress);\n\n    constructor(address[] memory _signers, uint _requiredSignatures) {\n        signers = _signers;\n        requiredSignatures = _requiredSignatures;\n    }\n\n    function deposit(uint256 btcAmount, string memory btcAddress) public {\n        uint256 satAmount = btcAmount * 100000000; // Convert BTC to SAT\n        satBalances[msg.sender] += satAmount;\n        emit Deposit(msg.sender, satAmount, btcAddress);\n    }\n\n    function withdraw(uint256 satAmount, string memory btcAddress, bytes[] memory signatures) public {\n        require(satBalances[msg.sender] >= satAmount, \"Insufficient balance\");\n        require(signatures.length >= requiredSignatures, \"Not enough signatures\");\n\n        // Simplified signature verification implementation\n        for (uint i = 0; i < signatures.length; i++) {\n            // Signature verification logic\n        }\n\n        satBalances[msg.sender] -= satAmount;\n        uint256 btcAmount = satAmount / 100000000; // Convert SAT to BTC\n        emit Withdrawal(msg.sender, btcAmount, btcAddress);\n    }\n}\n",
  "sourcePath": "C:\\Users\\daniel\\Downloads\\satoshi-chain-updated-v2\\contracts\\PegSystem.sol",
  "compiler": {
    "name": "solc",
    "version": "0.8.20+commit.a1b79de6.Emscripten.clang"
  },
  "schemaVersion": "3.4.4",
  "updatedAt": "2024-07-11T02:24:32.410Z",
  "devdoc": {
    "kind": "dev",
    "methods": {},
    "version": 1
  },
  "userdoc": {
    "kind": "user",
    "methods": {},
    "version": 1
  }
}