{
  "contractName": "ProofOfTime",
  "abi": [
    {
      "inputs": [
        {
          "internalType": "uint256",
          "name": "_blockInterval",
          "type": "uint256"
        }
      ],
      "stateMutability": "nonpayable",
      "type": "constructor"
    },
    {
      "inputs": [],
      "name": "blockInterval",
      "outputs": [
        {
          "internalType": "uint256",
          "name": "",
          "type": "uint256"
        }
      ],
      "stateMutability": "view",
      "type": "function"
    },
    {
      "inputs": [],
      "name": "lastBlockTime",
      "outputs": [
        {
          "internalType": "uint256",
          "name": "",
          "type": "uint256"
        }
      ],
      "stateMutability": "view",
      "type": "function"
    },
    {
      "inputs": [],
      "name": "canGenerateBlock",
      "outputs": [
        {
          "internalType": "bool",
          "name": "",
          "type": "bool"
        }
      ],
      "stateMutability": "view",
      "type": "function"
    }
  ],
  "bytecode": "0x608060405234801561000f575f80fd5b5060405161014138038061014183398101604081905261002e91610039565b600155425f55610050565b5f60208284031215610049575f80fd5b5051919050565b60e58061005c5f395ff3fe6080604052348015600e575f80fd5b5060043610603a575f3560e01c8063c4c22e9814603e578063c85ea4ec146059578063dd6de5f3146060575b5f80fd5b604660015481565b6040519081526020015b60405180910390f35b60465f5481565b60666075565b60405190151581526020016050565b5f6001545f5460839190608b565b421015905090565b8082018082111560a957634e487b7160e01b5f52601160045260245ffd5b9291505056fea264697066735822122013bc42fb02a2e2472c90adc85eae7ac02d5578e73617930d2de4f3566ab2bd4464736f6c63430008140033",
  "immutableReferences": {},
  "source": "// SPDX-License-Identifier: MIT\npragma solidity ^0.8.0;\n\ncontract ProofOfTime {\n    uint256 public lastBlockTime;\n    uint256 public blockInterval;\n\n    constructor(uint256 _blockInterval) {\n        blockInterval = _blockInterval; // Adjusted for shorter interval, e.g., 60 seconds\n        lastBlockTime = block.timestamp;\n    }\n\n    modifier verifyTime() {\n        require(block.timestamp >= lastBlockTime + blockInterval, \"Block interval not met\");\n        _;\n        lastBlockTime = block.timestamp;\n    }\n\n    function canGenerateBlock() public view returns (bool) {\n        return block.timestamp >= lastBlockTime + blockInterval;\n    }\n}\n",
  "sourcePath": "C:\\Users\\daniel\\Downloads\\satoshi-chain-updated-v2\\contracts\\ProofOfTime.sol",
  "compiler": {
    "name": "solc",
    "version": "0.8.20+commit.a1b79de6.Emscripten.clang"
  },
  "schemaVersion": "3.4.4",
  "updatedAt": "2024-07-11T02:24:32.421Z",
  "devdoc": {
    "kind": "dev",
    "methods": {},
    "version": 1
  },
  "userdoc": {
    "kind": "user",
    "methods": {},
    "version": 1
  }
}