{
  "contractName": "ProofOfSpace",
  "abi": [
    {
      "anonymous": false,
      "inputs": [
        {
          "indexed": true,
          "internalType": "address",
          "name": "user",
          "type": "address"
        },
        {
          "indexed": false,
          "internalType": "uint256",
          "name": "size",
          "type": "uint256"
        },
        {
          "indexed": false,
          "internalType": "string",
          "name": "proof",
          "type": "string"
        }
      ],
      "name": "PlotCreated",
      "type": "event"
    },
    {
      "anonymous": false,
      "inputs": [
        {
          "indexed": true,
          "internalType": "address",
          "name": "user",
          "type": "address"
        },
        {
          "indexed": false,
          "internalType": "string",
          "name": "proof",
          "type": "string"
        },
        {
          "indexed": false,
          "internalType": "bool",
          "name": "valid",
          "type": "bool"
        }
      ],
      "name": "PlotVerified",
      "type": "event"
    },
    {
      "inputs": [
        {
          "internalType": "address",
          "name": "",
          "type": "address"
        }
      ],
      "name": "plots",
      "outputs": [
        {
          "internalType": "uint256",
          "name": "size",
          "type": "uint256"
        },
        {
          "internalType": "string",
          "name": "proof",
          "type": "string"
        },
        {
          "internalType": "bool",
          "name": "exists",
          "type": "bool"
        }
      ],
      "stateMutability": "view",
      "type": "function"
    },
    {
      "inputs": [],
      "name": "totalPlots",
      "outputs": [
        {
          "internalType": "uint256",
          "name": "",
          "type": "uint256"
        }
      ],
      "stateMutability": "view",
      "type": "function"
    },
    {
      "inputs": [
        {
          "internalType": "uint256",
          "name": "_size",
          "type": "uint256"
        },
        {
          "internalType": "string",
          "name": "_proof",
          "type": "string"
        }
      ],
      "name": "createPlot",
      "outputs": [],
      "stateMutability": "nonpayable",
      "type": "function"
    },
    {
      "inputs": [
        {
          "internalType": "address",
          "name": "_user",
          "type": "address"
        },
        {
          "internalType": "string",
          "name": "_challenge",
          "type": "string"
        }
      ],
      "name": "verifyPlot",
      "outputs": [
        {
          "internalType": "bool",
          "name": "",
          "type": "bool"
        }
      ],
      "stateMutability": "nonpayable",
      "type": "function"
    }
  ],
  "bytecode": "0x608060405234801561000f575f80fd5b5061082b8061001d5f395ff3fe608060405234801561000f575f80fd5b5060043610610049575f3560e01c8062c9800c1461004d5780634a404f961461007557806352158f351461008a578063fa1b4c1f146100a1575b5f80fd5b61006061005b3660046104f8565b6100c3565b60405190151581526020015b60405180910390f35b610088610083366004610543565b610286565b005b61009360015481565b60405190815260200161006c565b6100b46100af366004610571565b610395565b60405161006c939291906105de565b6001600160a01b0382165f90815260208181526040808320815160608101909252805482526001810180548594840191906100fd90610608565b80601f016020809104026020016040519081016040528092919081815260200182805461012990610608565b80156101745780601f1061014b57610100808354040283529160200191610174565b820191905f5260205f20905b81548152906001019060200180831161015757829003601f168201915b50505091835250506002919091015460ff16151560209091015260408101519091506101dd5760405162461bcd60e51b8152602060048201526013602482015272141b1bdd08191bd95cc81b9bdd08195e1a5cdd606a1b60448201526064015b60405180910390fd5b5f836040516020016101ef9190610640565b6040516020818303038152906040528051906020012082602001518560405160200161021c92919061065b565b60405160208183030381529060405280519060200120109050846001600160a01b03167f216b6d0dba78baef9ebf7961dd61a14df832463d610c1f555f2acd17aed4a155836020015183604051610274929190610689565b60405180910390a29150505b92915050565b335f9081526020819052604090206002015460ff16156102de5760405162461bcd60e51b8152602060048201526013602482015272506c6f7420616c72656164792065786973747360681b60448201526064016101d4565b6040805160608101825283815260208082018481526001838501819052335f9081529283905293909120825181559051919290919082019061032090826106fa565b50604091909101516002909101805460ff1916911515919091179055600180548391905f906103509084906107b6565b909155505060405133907f591f0907d1fc9ff6d38ae04999dec1b9499b3354e2d1febf3d19ffa0b44d45399061038990859085906107d5565b60405180910390a25050565b5f60208190529081526040902080546001820180549192916103b690610608565b80601f01602080910402602001604051908101604052809291908181526020018280546103e290610608565b801561042d5780601f106104045761010080835404028352916020019161042d565b820191905f5260205f20905b81548152906001019060200180831161041057829003601f168201915b5050506002909301549192505060ff1683565b80356001600160a01b0381168114610456575f80fd5b919050565b634e487b7160e01b5f52604160045260245ffd5b5f82601f83011261047e575f80fd5b813567ffffffffffffffff808211156104995761049961045b565b604051601f8301601f19908116603f011681019082821181831017156104c1576104c161045b565b816040528381528660208588010111156104d9575f80fd5b836020870160208301375f602085830101528094505050505092915050565b5f8060408385031215610509575f80fd5b61051283610440565b9150602083013567ffffffffffffffff81111561052d575f80fd5b6105398582860161046f565b9150509250929050565b5f8060408385031215610554575f80fd5b82359150602083013567ffffffffffffffff81111561052d575f80fd5b5f60208284031215610581575f80fd5b61058a82610440565b9392505050565b5f5b838110156105ab578181015183820152602001610593565b50505f910152565b5f81518084526105ca816020860160208601610591565b601f01601f19169290920160200192915050565b838152606060208201525f6105f660608301856105b3565b90508215156040830152949350505050565b600181811c9082168061061c57607f821691505b60208210810361063a57634e487b7160e01b5f52602260045260245ffd5b50919050565b5f8251610651818460208701610591565b9190910192915050565b5f835161066c818460208801610591565b835190830190610680818360208801610591565b01949350505050565b604081525f61069b60408301856105b3565b905082151560208301529392505050565b601f8211156106f5575f81815260208120601f850160051c810160208610156106d25750805b601f850160051c820191505b818110156106f1578281556001016106de565b5050505b505050565b815167ffffffffffffffff8111156107145761071461045b565b610728816107228454610608565b846106ac565b602080601f83116001811461075b575f84156107445750858301515b5f19600386901b1c1916600185901b1785556106f1565b5f85815260208120601f198616915b828110156107895788860151825594840194600190910190840161076a565b50858210156107a657878501515f19600388901b60f8161c191681555b5050505050600190811b01905550565b8082018082111561028057634e487b7160e01b5f52601160045260245ffd5b828152604060208201525f6107ed60408301846105b3565b94935050505056fea26469706673582212204da7435e79a3933e6dfb9592df835fcc5cd390fb50e9e399db5ee3329c65896564736f6c63430008140033",
  "immutableReferences": {},
  "source": "// SPDX-License-Identifier: MIT\npragma solidity ^0.8.0;\n\ncontract ProofOfSpace {\n    struct Plot {\n        uint256 size;\n        string proof;\n        bool exists;\n    }\n\n    mapping(address => Plot) public plots;\n    uint256 public totalPlots;\n\n    event PlotCreated(address indexed user, uint256 size, string proof);\n    event PlotVerified(address indexed user, string proof, bool valid);\n\n    function createPlot(uint256 _size, string memory _proof) public {\n        require(!plots[msg.sender].exists, \"Plot already exists\");\n        plots[msg.sender] = Plot(_size, _proof, true);\n        totalPlots += _size;\n        emit PlotCreated(msg.sender, _size, _proof);\n    }\n\n    function verifyPlot(address _user, string memory _challenge) public returns (bool) {\n        Plot memory plot = plots[_user];\n        require(plot.exists, \"Plot does not exist\");\n        bool valid = keccak256(abi.encodePacked(plot.proof, _challenge)) < keccak256(abi.encodePacked(_challenge));\n        emit PlotVerified(_user, plot.proof, valid);\n        return valid;\n    }\n}\n",
  "sourcePath": "C:\\Users\\daniel\\Downloads\\satoshi-chain-updated-v2\\contracts\\ProofOfSpace.sol",
  "compiler": {
    "name": "solc",
    "version": "0.8.20+commit.a1b79de6.Emscripten.clang"
  },
  "schemaVersion": "3.4.4",
  "updatedAt": "2024-07-11T02:24:32.416Z",
  "devdoc": {
    "kind": "dev",
    "methods": {},
    "version": 1
  },
  "userdoc": {
    "kind": "user",
    "methods": {},
    "version": 1
  }
}