{
  "contractName": "SatoshiChain",
  "abi": [
    {
      "inputs": [
        {
          "internalType": "uint256",
          "name": "_blockInterval",
          "type": "uint256"
        },
        {
          "internalType": "address[]",
          "name": "_signers",
          "type": "address[]"
        },
        {
          "internalType": "uint256",
          "name": "_requiredSignatures",
          "type": "uint256"
        },
        {
          "internalType": "address",
          "name": "_satoshiToken",
          "type": "address"
        },
        {
          "internalType": "uint256",
          "name": "_votingDuration",
          "type": "uint256"
        },
        {
          "internalType": "uint256",
          "name": "_rewardAmount",
          "type": "uint256"
        }
      ],
      "stateMutability": "nonpayable",
      "type": "constructor"
    },
    {
      "anonymous": false,
      "inputs": [
        {
          "indexed": false,
          "internalType": "uint256",
          "name": "blockNumber",
          "type": "uint256"
        },
        {
          "indexed": false,
          "internalType": "address",
          "name": "miner",
          "type": "address"
        },
        {
          "indexed": false,
          "internalType": "string",
          "name": "proof",
          "type": "string"
        },
        {
          "indexed": false,
          "internalType": "uint256",
          "name": "timestamp",
          "type": "uint256"
        },
        {
          "indexed": false,
          "internalType": "string",
          "name": "message",
          "type": "string"
        }
      ],
      "name": "BlockCreated",
      "type": "event"
    },
    {
      "anonymous": false,
      "inputs": [
        {
          "indexed": true,
          "internalType": "address",
          "name": "user",
          "type": "address"
        },
        {
          "indexed": false,
          "internalType": "uint256",
          "name": "amount",
          "type": "uint256"
        },
        {
          "indexed": false,
          "internalType": "string",
          "name": "btcAddress",
          "type": "string"
        }
      ],
      "name": "Deposit",
      "type": "event"
    },
    {
      "anonymous": false,
      "inputs": [
        {
          "indexed": true,
          "internalType": "address",
          "name": "user",
          "type": "address"
        },
        {
          "indexed": false,
          "internalType": "uint256",
          "name": "size",
          "type": "uint256"
        },
        {
          "indexed": false,
          "internalType": "string",
          "name": "proof",
          "type": "string"
        }
      ],
      "name": "PlotCreated",
      "type": "event"
    },
    {
      "anonymous": false,
      "inputs": [
        {
          "indexed": true,
          "internalType": "address",
          "name": "user",
          "type": "address"
        },
        {
          "indexed": false,
          "internalType": "string",
          "name": "proof",
          "type": "string"
        },
        {
          "indexed": false,
          "internalType": "bool",
          "name": "valid",
          "type": "bool"
        }
      ],
      "name": "PlotVerified",
      "type": "event"
    },
    {
      "anonymous": false,
      "inputs": [
        {
          "indexed": true,
          "internalType": "address",
          "name": "user",
          "type": "address"
        },
        {
          "indexed": false,
          "internalType": "uint256",
          "name": "amount",
          "type": "uint256"
        },
        {
          "indexed": false,
          "internalType": "string",
          "name": "btcAddress",
          "type": "string"
        }
      ],
      "name": "Withdrawal",
      "type": "event"
    },
    {
      "inputs": [],
      "name": "admin",
      "outputs": [
        {
          "internalType": "address",
          "name": "",
          "type": "address"
        }
      ],
      "stateMutability": "view",
      "type": "function"
    },
    {
      "inputs": [],
      "name": "blockInterval",
      "outputs": [
        {
          "internalType": "uint256",
          "name": "",
          "type": "uint256"
        }
      ],
      "stateMutability": "view",
      "type": "function"
    },
    {
      "inputs": [
        {
          "internalType": "uint256",
          "name": "",
          "type": "uint256"
        }
      ],
      "name": "blockchain",
      "outputs": [
        {
          "internalType": "uint256",
          "name": "blockNumber",
          "type": "uint256"
        },
        {
          "internalType": "address",
          "name": "miner",
          "type": "address"
        },
        {
          "internalType": "string",
          "name": "proof",
          "type": "string"
        },
        {
          "internalType": "uint256",
          "name": "timestamp",
          "type": "uint256"
        },
        {
          "internalType": "string",
          "name": "message",
          "type": "string"
        }
      ],
      "stateMutability": "view",
      "type": "function"
    },
    {
      "inputs": [],
      "name": "canGenerateBlock",
      "outputs": [
        {
          "internalType": "bool",
          "name": "",
          "type": "bool"
        }
      ],
      "stateMutability": "view",
      "type": "function"
    },
    {
      "inputs": [
        {
          "internalType": "uint256",
          "name": "_size",
          "type": "uint256"
        },
        {
          "internalType": "string",
          "name": "_proof",
          "type": "string"
        }
      ],
      "name": "createPlot",
      "outputs": [],
      "stateMutability": "nonpayable",
      "type": "function"
    },
    {
      "inputs": [
        {
          "internalType": "string",
          "name": "_description",
          "type": "string"
        }
      ],
      "name": "createProposal",
      "outputs": [],
      "stateMutability": "nonpayable",
      "type": "function"
    },
    {
      "inputs": [
        {
          "internalType": "uint256",
          "name": "btcAmount",
          "type": "uint256"
        },
        {
          "internalType": "string",
          "name": "btcAddress",
          "type": "string"
        }
      ],
      "name": "deposit",
      "outputs": [],
      "stateMutability": "nonpayable",
      "type": "function"
    },
    {
      "inputs": [
        {
          "internalType": "uint256",
          "name": "_proposalId",
          "type": "uint256"
        }
      ],
      "name": "executeProposal",
      "outputs": [],
      "stateMutability": "nonpayable",
      "type": "function"
    },
    {
      "inputs": [],
      "name": "lastBlockTime",
      "outputs": [
        {
          "internalType": "uint256",
          "name": "",
          "type": "uint256"
        }
      ],
      "stateMutability": "view",
      "type": "function"
    },
    {
      "inputs": [
        {
          "internalType": "address",
          "name": "",
          "type": "address"
        }
      ],
      "name": "plots",
      "outputs": [
        {
          "internalType": "uint256",
          "name": "size",
          "type": "uint256"
        },
        {
          "internalType": "string",
          "name": "proof",
          "type": "string"
        },
        {
          "internalType": "bool",
          "name": "exists",
          "type": "bool"
        }
      ],
      "stateMutability": "view",
      "type": "function"
    },
    {
      "inputs": [],
      "name": "proposalCount",
      "outputs": [
        {
          "internalType": "uint256",
          "name": "",
          "type": "uint256"
        }
      ],
      "stateMutability": "view",
      "type": "function"
    },
    {
      "inputs": [
        {
          "internalType": "uint256",
          "name": "",
          "type": "uint256"
        }
      ],
      "name": "proposals",
      "outputs": [
        {
          "internalType": "uint256",
          "name": "id",
          "type": "uint256"
        },
        {
          "internalType": "string",
          "name": "description",
          "type": "string"
        },
        {
          "internalType": "uint256",
          "name": "voteCount",
          "type": "uint256"
        },
        {
          "internalType": "uint256",
          "name": "endTime",
          "type": "uint256"
        },
        {
          "internalType": "bool",
          "name": "executed",
          "type": "bool"
        }
      ],
      "stateMutability": "view",
      "type": "function"
    },
    {
      "inputs": [],
      "name": "requiredSignatures",
      "outputs": [
        {
          "internalType": "uint256",
          "name": "",
          "type": "uint256"
        }
      ],
      "stateMutability": "view",
      "type": "function"
    },
    {
      "inputs": [],
      "name": "rewardAmount",
      "outputs": [
        {
          "internalType": "uint256",
          "name": "",
          "type": "uint256"
        }
      ],
      "stateMutability": "view",
      "type": "function"
    },
    {
      "inputs": [
        {
          "internalType": "address",
          "name": "",
          "type": "address"
        }
      ],
      "name": "satBalances",
      "outputs": [
        {
          "internalType": "uint256",
          "name": "",
          "type": "uint256"
        }
      ],
      "stateMutability": "view",
      "type": "function"
    },
    {
      "inputs": [],
      "name": "satoshiToken",
      "outputs": [
        {
          "internalType": "contract ISatoshiToken",
          "name": "",
          "type": "address"
        }
      ],
      "stateMutability": "view",
      "type": "function"
    },
    {
      "inputs": [
        {
          "internalType": "uint256",
          "name": "",
          "type": "uint256"
        }
      ],
      "name": "signers",
      "outputs": [
        {
          "internalType": "address",
          "name": "",
          "type": "address"
        }
      ],
      "stateMutability": "view",
      "type": "function"
    },
    {
      "inputs": [],
      "name": "totalPlots",
      "outputs": [
        {
          "internalType": "uint256",
          "name": "",
          "type": "uint256"
        }
      ],
      "stateMutability": "view",
      "type": "function"
    },
    {
      "inputs": [
        {
          "internalType": "address",
          "name": "_user",
          "type": "address"
        },
        {
          "internalType": "string",
          "name": "_challenge",
          "type": "string"
        }
      ],
      "name": "verifyPlot",
      "outputs": [
        {
          "internalType": "bool",
          "name": "",
          "type": "bool"
        }
      ],
      "stateMutability": "nonpayable",
      "type": "function"
    },
    {
      "inputs": [
        {
          "internalType": "uint256",
          "name": "_proposalId",
          "type": "uint256"
        }
      ],
      "name": "vote",
      "outputs": [],
      "stateMutability": "nonpayable",
      "type": "function"
    },
    {
      "inputs": [],
      "name": "votingDuration",
      "outputs": [
        {
          "internalType": "uint256",
          "name": "",
          "type": "uint256"
        }
      ],
      "stateMutability": "view",
      "type": "function"
    },
    {
      "inputs": [
        {
          "internalType": "uint256",
          "name": "satAmount",
          "type": "uint256"
        },
        {
          "internalType": "string",
          "name": "btcAddress",
          "type": "string"
        },
        {
          "internalType": "bytes[]",
          "name": "signatures",
          "type": "bytes[]"
        }
      ],
      "name": "withdraw",
      "outputs": [],
      "stateMutability": "nonpayable",
      "type": "function"
    },
    {
      "inputs": [
        {
          "internalType": "string",
          "name": "_challenge",
          "type": "string"
        },
        {
          "internalType": "string",
          "name": "_message",
          "type": "string"
        }
      ],
      "name": "createBlock",
      "outputs": [],
      "stateMutability": "nonpayable",
      "type": "function"
    },
    {
      "inputs": [
        {
          "internalType": "uint256",
          "name": "_index",
          "type": "uint256"
        }
      ],
      "name": "getBlock",
      "outputs": [
        {
          "components": [
            {
              "internalType": "uint256",
              "name": "blockNumber",
              "type": "uint256"
            },
            {
              "internalType": "address",
              "name": "miner",
              "type": "address"
            },
            {
              "internalType": "string",
              "name": "proof",
              "type": "string"
            },
            {
              "internalType": "uint256",
              "name": "timestamp",
              "type": "uint256"
            },
            {
              "internalType": "string",
              "name": "message",
              "type": "string"
            }
          ],
          "internalType": "struct SatoshiChain.Block",
          "name": "",
          "type": "tuple"
        }
      ],
      "stateMutability": "view",
      "type": "function"
    }
  ],
  "bytecode": "0x608060405234801562000010575f80fd5b5060405162001c9038038062001c90833981016040819052620000339162000150565b6003869055426002558451839083908390889088906200005b906005906020850190620000a2565b506006555060098054336001600160a01b031991821617909155600b80549091166001600160a01b039490941693909317909255600a55600c555062000257945050505050565b828054828255905f5260205f20908101928215620000f8579160200282015b82811115620000f857825182546001600160a01b0319166001600160a01b03909116178255602090920191600190910190620000c1565b50620001069291506200010a565b5090565b5b8082111562000106575f81556001016200010b565b634e487b7160e01b5f52604160045260245ffd5b80516001600160a01b03811681146200014b575f80fd5b919050565b5f805f805f8060c0878903121562000166575f80fd5b8651602080890151919750906001600160401b038082111562000187575f80fd5b818a0191508a601f8301126200019b575f80fd5b815181811115620001b057620001b062000120565b8060051b604051601f19603f83011681018181108582111715620001d857620001d862000120565b60405291825284820192508381018501918d831115620001f6575f80fd5b938501935b828510156200021f576200020f8562000134565b84529385019392850192620001fb565b809a50505050505050604087015193506200023d6060880162000134565b92506080870151915060a087015190509295509295509295565b611a2b80620002655f395ff3fe608060405234801561000f575f80fd5b5060043610610152575f3560e01c80638d068043116100bf578063dd6de5f311610079578063dd6de5f3146102e8578063e5e84a3b146102f0578063f1215d2514610303578063f7b2a7be14610316578063f851a4401461031f578063fa1b4c1f14610332575f80fd5b80638d0680431461028d578063901614c114610296578063c25b1eaf146102a9578063c4c22e98146102cd578063c85ea4ec146102d6578063da35c664146102df575f80fd5b80632079fb9a116101105780632079fb9a146102015780633968074f1461022c57806349c2a1a61461024b5780634a404f961461025e57806352158f3514610271578063701128e91461027a575f80fd5b8062c9800c146101565780630121b93f1461017e578063013cf08b1461019357806304c07569146101b75780630d61b519146101d7578063132002fc146101ea575b5f80fd5b6101696101643660046113dc565b610354565b60405190151581526020015b60405180910390f35b61019161018c366004611427565b610517565b005b6101a66101a1366004611427565b6106b6565b60405161017595949392919061148b565b6101ca6101c5366004611427565b61076f565b60405161017591906114c2565b6101916101e5366004611427565b610981565b6101f3600a5481565b604051908152602001610175565b61021461020f366004611427565b610aff565b6040516001600160a01b039091168152602001610175565b6101f361023a366004611529565b60046020525f908152604090205481565b610191610259366004611542565b610b27565b61019161026c36600461157c565b610b73565b6101f360015481565b6101916102883660046115aa565b610c82565b6101f360065481565b6101916102a4366004611600565b610f33565b6102bc6102b7366004611427565b61106f565b6040516101759594939291906116fd565b6101f360035481565b6101f360025481565b6101f360075481565b6101696111c6565b600b54610214906001600160a01b031681565b61019161031136600461157c565b6111df565b6101f3600c5481565b600954610214906001600160a01b031681565b610345610340366004611529565b611257565b6040516101759392919061174a565b6001600160a01b0382165f908152602081815260408083208151606081019092528054825260018101805485948401919061038e90611774565b80601f01602080910402602001604051908101604052809291908181526020018280546103ba90611774565b80156104055780601f106103dc57610100808354040283529160200191610405565b820191905f5260205f20905b8154815290600101906020018083116103e857829003601f168201915b50505091835250506002919091015460ff161515602090910152604081015190915061046e5760405162461bcd60e51b8152602060048201526013602482015272141b1bdd08191bd95cc81b9bdd08195e1a5cdd606a1b60448201526064015b60405180910390fd5b5f8360405160200161048091906117ac565b604051602081830303815290604052805190602001208260200151856040516020016104ad9291906117c7565b60405160208183030381529060405280519060200120109050846001600160a01b03167f216b6d0dba78baef9ebf7961dd61a14df832463d610c1f555f2acd17aed4a1558360200151836040516105059291906117f5565b60405180910390a29150505b92915050565b5f8181526008602052604090206004810154421061056d5760405162461bcd60e51b8152602060048201526013602482015272159bdd1a5b99c81c195c9a5bd908195b991959606a1b6044820152606401610465565b335f90815260038201602052604090205460ff16156105c75760405162461bcd60e51b8152602060048201526016602482015275165bdd481a185d9948185b1c9958591e481d9bdd195960521b6044820152606401610465565b335f9081526003820160205260408120805460ff19166001179055600282018054916105f28361182c565b9091555050600b54600c5460405163a9059cbb60e01b815233600482015260248101919091526001600160a01b039091169063a9059cbb906044016020604051808303815f875af1158015610649573d5f803e3d5ffd5b505050506040513d601f19601f8201168201806040525081019061066d9190611844565b6106b25760405162461bcd60e51b815260206004820152601660248201527514995dd85c99081d1c985b9cd9995c8819985a5b195960521b6044820152606401610465565b5050565b60086020525f9081526040902080546001820180549192916106d790611774565b80601f016020809104026020016040519081016040528092919081815260200182805461070390611774565b801561074e5780601f106107255761010080835404028352916020019161074e565b820191905f5260205f20905b81548152906001019060200180831161073157829003601f168201915b50505050600283015460048401546005909401549293909290915060ff1685565b6107a76040518060a001604052805f81526020015f6001600160a01b03168152602001606081526020015f8152602001606081525090565b600d5482106107ef5760405162461bcd60e51b8152602060048201526014602482015273109b1bd8dac8191bd95cc81b9bdd08195e1a5cdd60621b6044820152606401610465565b600d828154811061080257610802611863565b905f5260205f2090600502016040518060a00160405290815f8201548152602001600182015f9054906101000a90046001600160a01b03166001600160a01b03166001600160a01b0316815260200160028201805461086090611774565b80601f016020809104026020016040519081016040528092919081815260200182805461088c90611774565b80156108d75780601f106108ae576101008083540402835291602001916108d7565b820191905f5260205f20905b8154815290600101906020018083116108ba57829003601f168201915b50505050508152602001600382015481526020016004820180546108fa90611774565b80601f016020809104026020016040519081016040528092919081815260200182805461092690611774565b80156109715780601f1061094857610100808354040283529160200191610971565b820191905f5260205f20905b81548152906001019060200180831161095457829003601f168201915b5050505050815250509050919050565b6009546001600160a01b031633146109e55760405162461bcd60e51b815260206004820152602160248201527f4f6e6c792061646d696e2063616e2063616c6c20746869732066756e6374696f6044820152603760f91b6064820152608401610465565b5f818152600860205260409020600581015460ff1615610a475760405162461bcd60e51b815260206004820152601960248201527f50726f706f73616c20616c7265616479206578656375746564000000000000006044820152606401610465565b5f816002015411610a9a5760405162461bcd60e51b815260206004820152601960248201527f4e6f20766f74657320666f72207468652070726f706f73616c000000000000006044820152606401610465565b8060040154421015610aee5760405162461bcd60e51b815260206004820152601760248201527f566f74696e6720706572696f64206e6f7420656e6465640000000000000000006044820152606401610465565b600501805460ff1916600117905550565b60058181548110610b0e575f80fd5b5f918252602090912001546001600160a01b0316905081565b60078054905f610b368361182c565b90915550506007545f81815260086020526040902090815560018101610b5c83826118c5565b50600a54610b6a9042611981565b60049091015550565b335f9081526020819052604090206002015460ff1615610bcb5760405162461bcd60e51b8152602060048201526013602482015272506c6f7420616c72656164792065786973747360681b6044820152606401610465565b6040805160608101825283815260208082018481526001838501819052335f90815292839052939091208251815590519192909190820190610c0d90826118c5565b50604091909101516002909101805460ff1916911515919091179055600180548391905f90610c3d908490611981565b909155505060405133907f591f0907d1fc9ff6d38ae04999dec1b9499b3354e2d1febf3d19ffa0b44d453990610c769085908590611994565b60405180910390a25050565b600354600254610c929190611981565b421015610cda5760405162461bcd60e51b8152602060048201526016602482015275109b1bd8dac81a5b9d195c9d985b081b9bdd081b595d60521b6044820152606401610465565b610ce43383610354565b610d255760405162461bcd60e51b815260206004820152601260248201527124b73b30b634b210383637ba10383937b7b360711b6044820152606401610465565b5f6040518060a00160405280600d805490506001610d439190611981565b81523360208083018290525f9182528190526040908190206001018054919092019190610d6f90611774565b80601f0160208091040260200160405190810160405280929190818152602001828054610d9b90611774565b8015610de65780601f10610dbd57610100808354040283529160200191610de6565b820191905f5260205f20905b815481529060010190602001808311610dc957829003601f168201915b5050509183525050426020808301919091526040918201859052600d80546001810182555f9190915283517fd7b6990105719101dabeb77144f2a3385c8033acd3af97e9423a695e81ad1eb56005909202918201908155918401517fd7b6990105719101dabeb77144f2a3385c8033acd3af97e9423a695e81ad1eb6820180546001600160a01b0319166001600160a01b0390921691909117905591830151929350839290917fd7b6990105719101dabeb77144f2a3385c8033acd3af97e9423a695e81ad1eb70190610eb990826118c5565b506060820151600382015560808201516004820190610ed890826118c5565b5050815160208301516040808501516060860151608087015192517f1ebb91cd5dae51f6c96f551682d9a80db218a45ae7cf3f96be49c4dd966c67979650610f22959493906116fd565b60405180910390a150504260025550565b335f90815260046020526040902054831115610f885760405162461bcd60e51b8152602060048201526014602482015273496e73756666696369656e742062616c616e636560601b6044820152606401610465565b60065481511015610fd35760405162461bcd60e51b81526020600482015260156024820152744e6f7420656e6f756768207369676e61747572657360581b6044820152606401610465565b5f5b8151811015610ff05780610fe88161182c565b915050610fd5565b50335f908152600460205260408120805485929061100f9084906119ac565b909155505f90506110246305f5e100856119bf565b9050336001600160a01b03167fecb269d89bfded20a4f5e6e51b509df1e3309a995946c9be8d6a8e2ddfa6b89c8285604051611061929190611994565b60405180910390a250505050565b600d818154811061107e575f80fd5b5f9182526020909120600590910201805460018201546002830180549294506001600160a01b0390911692916110b390611774565b80601f01602080910402602001604051908101604052809291908181526020018280546110df90611774565b801561112a5780601f106111015761010080835404028352916020019161112a565b820191905f5260205f20905b81548152906001019060200180831161110d57829003601f168201915b50505050509080600301549080600401805461114590611774565b80601f016020809104026020016040519081016040528092919081815260200182805461117190611774565b80156111bc5780601f10611193576101008083540402835291602001916111bc565b820191905f5260205f20905b81548152906001019060200180831161119f57829003601f168201915b5050505050905085565b5f6003546002546111d79190611981565b421015905090565b5f6111ee836305f5e1006119de565b335f90815260046020526040812080549293508392909190611211908490611981565b909155505060405133907f643e927b32d5bfd08eccd2fcbd97057ad413850f857a2359639114e8e8dd3d7b9061124a9084908690611994565b60405180910390a2505050565b5f602081905290815260409020805460018201805491929161127890611774565b80601f01602080910402602001604051908101604052809291908181526020018280546112a490611774565b80156112ef5780601f106112c6576101008083540402835291602001916112ef565b820191905f5260205f20905b8154815290600101906020018083116112d257829003601f168201915b5050506002909301549192505060ff1683565b80356001600160a01b0381168114611318575f80fd5b919050565b634e487b7160e01b5f52604160045260245ffd5b604051601f8201601f1916810167ffffffffffffffff8111828210171561135a5761135a61131d565b604052919050565b5f67ffffffffffffffff83111561137b5761137b61131d565b61138e601f8401601f1916602001611331565b90508281528383830111156113a1575f80fd5b828260208301375f602084830101529392505050565b5f82601f8301126113c6575f80fd5b6113d583833560208501611362565b9392505050565b5f80604083850312156113ed575f80fd5b6113f683611302565b9150602083013567ffffffffffffffff811115611411575f80fd5b61141d858286016113b7565b9150509250929050565b5f60208284031215611437575f80fd5b5035919050565b5f5b83811015611458578181015183820152602001611440565b50505f910152565b5f815180845261147781602086016020860161143e565b601f01601f19169290920160200192915050565b85815260a060208201525f6114a360a0830187611460565b6040830195909552506060810192909252151560809091015292915050565b602081528151602082015260018060a01b0360208301511660408201525f604083015160a060608401526114f960c0840182611460565b9050606084015160808401526080840151601f198483030160a08501526115208282611460565b95945050505050565b5f60208284031215611539575f80fd5b6113d582611302565b5f60208284031215611552575f80fd5b813567ffffffffffffffff811115611568575f80fd5b611574848285016113b7565b949350505050565b5f806040838503121561158d575f80fd5b82359150602083013567ffffffffffffffff811115611411575f80fd5b5f80604083850312156115bb575f80fd5b823567ffffffffffffffff808211156115d2575f80fd5b6115de868387016113b7565b935060208501359150808211156115f3575f80fd5b5061141d858286016113b7565b5f805f60608486031215611612575f80fd5b8335925060208085013567ffffffffffffffff80821115611631575f80fd5b61163d888389016113b7565b9450604091508187013581811115611653575f80fd5b8701601f81018913611663575f80fd5b8035828111156116755761167561131d565b8060051b611684868201611331565b918252828101860191868101908c84111561169d575f80fd5b87850192505b838310156116eb578235868111156116ba575f8081fd5b8501603f81018e136116cb575f8081fd5b6116db8e8a8301358a8401611362565b83525091870191908701906116a3565b80985050505050505050509250925092565b8581526001600160a01b038516602082015260a0604082018190525f9061172690830186611460565b846060840152828103608084015261173e8185611460565b98975050505050505050565b838152606060208201525f6117626060830185611460565b90508215156040830152949350505050565b600181811c9082168061178857607f821691505b6020821081036117a657634e487b7160e01b5f52602260045260245ffd5b50919050565b5f82516117bd81846020870161143e565b9190910192915050565b5f83516117d881846020880161143e565b8351908301906117ec81836020880161143e565b01949350505050565b604081525f6118076040830185611460565b905082151560208301529392505050565b634e487b7160e01b5f52601160045260245ffd5b5f6001820161183d5761183d611818565b5060010190565b5f60208284031215611854575f80fd5b815180151581146113d5575f80fd5b634e487b7160e01b5f52603260045260245ffd5b601f8211156118c0575f81815260208120601f850160051c8101602086101561189d5750805b601f850160051c820191505b818110156118bc578281556001016118a9565b5050505b505050565b815167ffffffffffffffff8111156118df576118df61131d565b6118f3816118ed8454611774565b84611877565b602080601f831160018114611926575f841561190f5750858301515b5f19600386901b1c1916600185901b1785556118bc565b5f85815260208120601f198616915b8281101561195457888601518255948401946001909101908401611935565b508582101561197157878501515f19600388901b60f8161c191681555b5050505050600190811b01905550565b8082018082111561051157610511611818565b828152604060208201525f6115746040830184611460565b8181038181111561051157610511611818565b5f826119d957634e487b7160e01b5f52601260045260245ffd5b500490565b80820281158282048414176105115761051161181856fea2646970667358221220b92c2ef6e7adf8b71dd68d126ca7ee7f27fdf0833e82597e86d3b618b5ec1e9e64736f6c63430008140033",
  "immutableReferences": {},
  "source": "// SPDX-License-Identifier: MIT\npragma solidity ^0.8.0;\n\nimport \"./ProofOfSpace.sol\";\nimport \"./ProofOfTime.sol\";\nimport \"./PegSystem.sol\";\nimport \"./Governance.sol\";\n\ncontract SatoshiChain is ProofOfSpace, ProofOfTime, PegSystem, Governance {\n    struct Block {\n        uint256 blockNumber;\n        address miner;\n        string proof;\n        uint256 timestamp;\n        string message; // Added message field\n    }\n\n    Block[] public blockchain;\n\n    event BlockCreated(uint256 blockNumber, address miner, string proof, uint256 timestamp, string message);\n\n    constructor(\n        uint256 _blockInterval,\n        address[] memory _signers,\n        uint _requiredSignatures,\n        address _satoshiToken,\n        uint _votingDuration,\n        uint _rewardAmount\n    )\n        ProofOfTime(_blockInterval)\n        PegSystem(_signers, _requiredSignatures)\n        Governance(_satoshiToken, _votingDuration, _rewardAmount)\n    {}\n\n    function createBlock(string memory _challenge, string memory _message) public verifyTime {\n        require(verifyPlot(msg.sender, _challenge), \"Invalid plot proof\");\n\n        Block memory newBlock = Block({\n            blockNumber: blockchain.length + 1,\n            miner: msg.sender,\n            proof: plots[msg.sender].proof,\n            timestamp: block.timestamp,\n            message: _message // Store the message in the block\n        });\n\n        blockchain.push(newBlock);\n        emit BlockCreated(newBlock.blockNumber, newBlock.miner, newBlock.proof, newBlock.timestamp, newBlock.message);\n    }\n\n    function getBlock(uint256 _index) public view returns (Block memory) {\n        require(_index < blockchain.length, \"Block does not exist\");\n        return blockchain[_index];\n    }\n}\n",
  "sourcePath": "C:\\Users\\daniel\\Downloads\\satoshi-chain-updated-v2\\contracts\\SatoshiChain.sol",
  "compiler": {
    "name": "solc",
    "version": "0.8.20+commit.a1b79de6.Emscripten.clang"
  },
  "schemaVersion": "3.4.4",
  "updatedAt": "2024-07-11T02:24:32.427Z",
  "devdoc": {
    "kind": "dev",
    "methods": {},
    "version": 1
  },
  "userdoc": {
    "kind": "user",
    "methods": {},
    "version": 1
  }
}