{
  "contractName": "Updater",
  "abi": [
    {
      "inputs": [],
      "stateMutability": "nonpayable",
      "type": "constructor"
    },
    {
      "inputs": [],
      "name": "admin",
      "outputs": [
        {
          "internalType": "address",
          "name": "",
          "type": "address"
        }
      ],
      "stateMutability": "view",
      "type": "function"
    },
    {
      "inputs": [],
      "name": "updateContract",
      "outputs": [],
      "stateMutability": "nonpayable",
      "type": "function"
    }
  ],
  "bytecode": "0x608060405234801561000f575f80fd5b505f80546001600160a01b031916331790556101078061002e5f395ff3fe6080604052348015600e575f80fd5b50600436106030575f3560e01c8063a241c089146034578063f851a44014603c575b5f80fd5b603a6069565b005b5f54604d906001600160a01b031681565b6040516001600160a01b03909116815260200160405180910390f35b5f546001600160a01b0316331460cf5760405162461bcd60e51b815260206004820152602160248201527f4f6e6c792061646d696e2063616e2063616c6c20746869732066756e6374696f6044820152603760f91b606482015260840160405180910390fd5b56fea26469706673582212201b44dd01d9950214013586c8608702a0160e84c4d727d35a1967f92fc9da250c64736f6c63430008140033",
  "immutableReferences": {},
  "source": "// SPDX-License-Identifier: MIT\npragma solidity ^0.8.0;\n\ncontract Updater {\n    address public admin;\n\n    modifier onlyAdmin() {\n        require(msg.sender == admin, \"Only admin can call this function\");\n        _;\n    }\n\n    constructor() {\n        admin = msg.sender;\n    }\n\n    function updateContract() public onlyAdmin {\n        // Logic to update smart contracts on the network\n        // This logic can include deploying new contracts,\n        // migrating data, etc.\n    }\n}\n",
  "sourcePath": "C:\\Users\\daniel\\Downloads\\satoshi-chain-updated-v2\\contracts\\Updater.sol",
  "compiler": {
    "name": "solc",
    "version": "0.8.20+commit.a1b79de6.Emscripten.clang"
  },
  "schemaVersion": "3.4.4",
  "updatedAt": "2024-07-11T02:24:32.443Z",
  "devdoc": {
    "kind": "dev",
    "methods": {},
    "version": 1
  },
  "userdoc": {
    "kind": "user",
    "methods": {},
    "version": 1
  }
}